{
    "_format": "hh-sol-artifact-1",
    "contractName": "MerkleNft",
    "sourceName": "contracts/MerkleNft.sol",
    "abi": [
        {
            "inputs": [],
            "stateMutability": "nonpayable",
            "type": "constructor"
        },
        {
            "anonymous": false,
            "inputs": [
                {
                    "indexed": true,
                    "internalType": "address",
                    "name": "owner",
                    "type": "address"
                },
                {
                    "indexed": true,
                    "internalType": "address",
                    "name": "approved",
                    "type": "address"
                },
                {
                    "indexed": true,
                    "internalType": "uint256",
                    "name": "tokenId",
                    "type": "uint256"
                }
            ],
            "name": "Approval",
            "type": "event"
        },
        {
            "anonymous": false,
            "inputs": [
                {
                    "indexed": true,
                    "internalType": "address",
                    "name": "owner",
                    "type": "address"
                },
                {
                    "indexed": true,
                    "internalType": "address",
                    "name": "operator",
                    "type": "address"
                },
                {
                    "indexed": false,
                    "internalType": "bool",
                    "name": "approved",
                    "type": "bool"
                }
            ],
            "name": "ApprovalForAll",
            "type": "event"
        },
        {
            "anonymous": false,
            "inputs": [
                {
                    "indexed": true,
                    "internalType": "address",
                    "name": "from",
                    "type": "address"
                },
                {
                    "indexed": true,
                    "internalType": "address",
                    "name": "to",
                    "type": "address"
                },
                {
                    "indexed": true,
                    "internalType": "uint256",
                    "name": "tokenId",
                    "type": "uint256"
                }
            ],
            "name": "Transfer",
            "type": "event"
        },
        {
            "inputs": [
                {
                    "internalType": "address",
                    "name": "to",
                    "type": "address"
                },
                {
                    "internalType": "uint256",
                    "name": "tokenId",
                    "type": "uint256"
                }
            ],
            "name": "approve",
            "outputs": [],
            "stateMutability": "nonpayable",
            "type": "function"
        },
        {
            "inputs": [
                {
                    "internalType": "address",
                    "name": "owner",
                    "type": "address"
                }
            ],
            "name": "balanceOf",
            "outputs": [
                {
                    "internalType": "uint256",
                    "name": "",
                    "type": "uint256"
                }
            ],
            "stateMutability": "view",
            "type": "function"
        },
        {
            "inputs": [
                {
                    "internalType": "uint256",
                    "name": "tokenId",
                    "type": "uint256"
                }
            ],
            "name": "getApproved",
            "outputs": [
                {
                    "internalType": "address",
                    "name": "",
                    "type": "address"
                }
            ],
            "stateMutability": "view",
            "type": "function"
        },
        {
            "inputs": [
                {
                    "internalType": "address",
                    "name": "owner",
                    "type": "address"
                },
                {
                    "internalType": "address",
                    "name": "operator",
                    "type": "address"
                }
            ],
            "name": "isApprovedForAll",
            "outputs": [
                {
                    "internalType": "bool",
                    "name": "",
                    "type": "bool"
                }
            ],
            "stateMutability": "view",
            "type": "function"
        },
        {
            "inputs": [
                {
                    "internalType": "uint256",
                    "name": "",
                    "type": "uint256"
                }
            ],
            "name": "leaves",
            "outputs": [
                {
                    "internalType": "bytes32",
                    "name": "",
                    "type": "bytes32"
                }
            ],
            "stateMutability": "view",
            "type": "function"
        },
        {
            "inputs": [
                {
                    "internalType": "address",
                    "name": "client",
                    "type": "address"
                }
            ],
            "name": "mintNFT",
            "outputs": [
                {
                    "internalType": "uint256",
                    "name": "",
                    "type": "uint256"
                }
            ],
            "stateMutability": "nonpayable",
            "type": "function"
        },
        {
            "inputs": [],
            "name": "name",
            "outputs": [
                {
                    "internalType": "string",
                    "name": "",
                    "type": "string"
                }
            ],
            "stateMutability": "view",
            "type": "function"
        },
        {
            "inputs": [
                {
                    "internalType": "uint256",
                    "name": "tokenId",
                    "type": "uint256"
                }
            ],
            "name": "ownerOf",
            "outputs": [
                {
                    "internalType": "address",
                    "name": "",
                    "type": "address"
                }
            ],
            "stateMutability": "view",
            "type": "function"
        },
        {
            "inputs": [
                {
                    "internalType": "address",
                    "name": "from",
                    "type": "address"
                },
                {
                    "internalType": "address",
                    "name": "to",
                    "type": "address"
                },
                {
                    "internalType": "uint256",
                    "name": "tokenId",
                    "type": "uint256"
                }
            ],
            "name": "safeTransferFrom",
            "outputs": [],
            "stateMutability": "nonpayable",
            "type": "function"
        },
        {
            "inputs": [
                {
                    "internalType": "address",
                    "name": "from",
                    "type": "address"
                },
                {
                    "internalType": "address",
                    "name": "to",
                    "type": "address"
                },
                {
                    "internalType": "uint256",
                    "name": "tokenId",
                    "type": "uint256"
                },
                {
                    "internalType": "bytes",
                    "name": "_data",
                    "type": "bytes"
                }
            ],
            "name": "safeTransferFrom",
            "outputs": [],
            "stateMutability": "nonpayable",
            "type": "function"
        },
        {
            "inputs": [
                {
                    "internalType": "address",
                    "name": "operator",
                    "type": "address"
                },
                {
                    "internalType": "bool",
                    "name": "approved",
                    "type": "bool"
                }
            ],
            "name": "setApprovalForAll",
            "outputs": [],
            "stateMutability": "nonpayable",
            "type": "function"
        },
        {
            "inputs": [
                {
                    "internalType": "bytes4",
                    "name": "interfaceId",
                    "type": "bytes4"
                }
            ],
            "name": "supportsInterface",
            "outputs": [
                {
                    "internalType": "bool",
                    "name": "",
                    "type": "bool"
                }
            ],
            "stateMutability": "view",
            "type": "function"
        },
        {
            "inputs": [],
            "name": "symbol",
            "outputs": [
                {
                    "internalType": "string",
                    "name": "",
                    "type": "string"
                }
            ],
            "stateMutability": "view",
            "type": "function"
        },
        {
            "inputs": [
                {
                    "internalType": "uint256",
                    "name": "tokenId",
                    "type": "uint256"
                }
            ],
            "name": "tokenURI",
            "outputs": [
                {
                    "internalType": "string",
                    "name": "",
                    "type": "string"
                }
            ],
            "stateMutability": "view",
            "type": "function"
        },
        {
            "inputs": [
                {
                    "internalType": "address",
                    "name": "from",
                    "type": "address"
                },
                {
                    "internalType": "address",
                    "name": "to",
                    "type": "address"
                },
                {
                    "internalType": "uint256",
                    "name": "tokenId",
                    "type": "uint256"
                }
            ],
            "name": "transferFrom",
            "outputs": [],
            "stateMutability": "nonpayable",
            "type": "function"
        }
    ],
    "bytecode": "0x60806040523480156200001157600080fd5b506040518060400160405280600981526020017f4d65726b6c654e667400000000000000000000000000000000000000000000008152506040518060400160405280600381526020017f4e46540000000000000000000000000000000000000000000000000000000000815250816000908051906020019062000096929190620001b3565b508060019080519060200190620000af929190620001b3565b505050620000e16040518060800160405280605581526020016200376a60559139620000e760201b62000bf81760201c565b62000390565b6200018781604051602401620000fe919062000307565b6040516020818303038152906040527f41304fac000000000000000000000000000000000000000000000000000000007bffffffffffffffffffffffffffffffffffffffffffffffffffffffff19166020820180517bffffffffffffffffffffffffffffffffffffffffffffffffffffffff83818316178352505050506200018a60201b60201c565b50565b60008151905060006a636f6e736f6c652e6c6f679050602083016000808483855afa5050505050565b828054620001c1906200035a565b90600052602060002090601f016020900481019282620001e5576000855562000231565b82601f106200020057805160ff191683800117855562000231565b8280016001018555821562000231579182015b828111156200023057825182559160200191906001019062000213565b5b50905062000240919062000244565b5090565b5b808211156200025f57600081600090555060010162000245565b5090565b600081519050919050565b600082825260208201905092915050565b60005b838110156200029f57808201518184015260208101905062000282565b83811115620002af576000848401525b50505050565b6000601f19601f8301169050919050565b6000620002d38262000263565b620002df81856200026e565b9350620002f18185602086016200027f565b620002fc81620002b5565b840191505092915050565b60006020820190508181036000830152620003238184620002c6565b905092915050565b7f4e487b7100000000000000000000000000000000000000000000000000000000600052602260045260246000fd5b600060028204905060018216806200037357607f821691505b602082108114156200038a57620003896200032b565b5b50919050565b6133ca80620003a06000396000f3fe608060405234801561001057600080fd5b50600436106100f55760003560e01c80636352211e11610097578063b88d4fde11610066578063b88d4fde14610296578063c87b56dd146102b2578063d455a79d146102e2578063e985e9c514610312576100f5565b80636352211e146101fc57806370a082311461022c57806395d89b411461025c578063a22cb4651461027a576100f5565b8063095ea7b3116100d3578063095ea7b31461017857806323b872dd1461019457806342842e0e146101b057806354ba0f27146101cc576100f5565b806301ffc9a7146100fa57806306fdde031461012a578063081812fc14610148575b600080fd5b610114600480360381019061010f9190611d99565b610342565b6040516101219190611de1565b60405180910390f35b610132610424565b60405161013f9190611e95565b60405180910390f35b610162600480360381019061015d9190611eed565b6104b6565b60405161016f9190611f5b565b60405180910390f35b610192600480360381019061018d9190611fa2565b61053b565b005b6101ae60048036038101906101a99190611fe2565b610653565b005b6101ca60048036038101906101c59190611fe2565b6106b3565b005b6101e660048036038101906101e19190612035565b6106d3565b6040516101f39190612071565b60405180910390f35b61021660048036038101906102119190611eed565b61077a565b6040516102239190611f5b565b60405180910390f35b61024660048036038101906102419190612035565b61082c565b6040516102539190612071565b60405180910390f35b6102646108e4565b6040516102719190611e95565b60405180910390f35b610294600480360381019061028f91906120b8565b610976565b005b6102b060048036038101906102ab919061222d565b61098c565b005b6102cc60048036038101906102c79190611eed565b6109ee565b6040516102d99190611e95565b60405180910390f35b6102fc60048036038101906102f79190611eed565b610b40565b60405161030991906122c9565b60405180910390f35b61032c600480360381019061032791906122e4565b610b64565b6040516103399190611de1565b60405180910390f35b60007f80ac58cd000000000000000000000000000000000000000000000000000000007bffffffffffffffffffffffffffffffffffffffffffffffffffffffff1916827bffffffffffffffffffffffffffffffffffffffffffffffffffffffff1916148061040d57507f5b5e139f000000000000000000000000000000000000000000000000000000007bffffffffffffffffffffffffffffffffffffffffffffffffffffffff1916827bffffffffffffffffffffffffffffffffffffffffffffffffffffffff1916145b8061041d575061041c82610c91565b5b9050919050565b60606000805461043390612353565b80601f016020809104026020016040519081016040528092919081815260200182805461045f90612353565b80156104ac5780601f10610481576101008083540402835291602001916104ac565b820191906000526020600020905b81548152906001019060200180831161048f57829003601f168201915b5050505050905090565b60006104c182610cfb565b610500576040517f08c379a00000000000000000000000000000000000000000000000000000000081526004016104f7906123f7565b60405180910390fd5b6004600083815260200190815260200160002060009054906101000a900473ffffffffffffffffffffffffffffffffffffffff169050919050565b60006105468261077a565b90508073ffffffffffffffffffffffffffffffffffffffff168373ffffffffffffffffffffffffffffffffffffffff1614156105b7576040517f08c379a00000000000000000000000000000000000000000000000000000000081526004016105ae90612489565b60405180910390fd5b8073ffffffffffffffffffffffffffffffffffffffff166105d6610d67565b73ffffffffffffffffffffffffffffffffffffffff1614806106055750610604816105ff610d67565b610b64565b5b610644576040517f08c379a000000000000000000000000000000000000000000000000000000000815260040161063b9061251b565b60405180910390fd5b61064e8383610d6f565b505050565b61066461065e610d67565b82610e28565b6106a3576040517f08c379a000000000000000000000000000000000000000000000000000000000815260040161069a906125ad565b60405180910390fd5b6106ae838383610f06565b505050565b6106ce8383836040518060200160405280600081525061098c565b505050565b60006106df600761116d565b60006106eb6007611183565b905060006106f882611191565b61070183611191565b6040516020016107129291906127f7565b604051602081830303815290604052905061072d84836112f2565b6000610738826114cc565b60405160200161074891906128a9565b60405160208183030381529060405290506107638382611630565b61076f338685846116a4565b829350505050919050565b6000806002600084815260200190815260200160002060009054906101000a900473ffffffffffffffffffffffffffffffffffffffff169050600073ffffffffffffffffffffffffffffffffffffffff168173ffffffffffffffffffffffffffffffffffffffff161415610823576040517f08c379a000000000000000000000000000000000000000000000000000000000815260040161081a9061293d565b60405180910390fd5b80915050919050565b60008073ffffffffffffffffffffffffffffffffffffffff168273ffffffffffffffffffffffffffffffffffffffff16141561089d576040517f08c379a0000000000000000000000000000000000000000000000000000000008152600401610894906129cf565b60405180910390fd5b600360008373ffffffffffffffffffffffffffffffffffffffff1673ffffffffffffffffffffffffffffffffffffffff168152602001908152602001600020549050919050565b6060600180546108f390612353565b80601f016020809104026020016040519081016040528092919081815260200182805461091f90612353565b801561096c5780601f106109415761010080835404028352916020019161096c565b820191906000526020600020905b81548152906001019060200180831161094f57829003601f168201915b5050505050905090565b610988610981610d67565b8383611816565b5050565b61099d610997610d67565b83610e28565b6109dc576040517f08c379a00000000000000000000000000000000000000000000000000000000081526004016109d3906125ad565b60405180910390fd5b6109e884848484611983565b50505050565b60606109f982610cfb565b610a38576040517f08c379a0000000000000000000000000000000000000000000000000000000008152600401610a2f90612a61565b60405180910390fd5b6000600660008481526020019081526020016000208054610a5890612353565b80601f0160208091040260200160405190810160405280929190818152602001828054610a8490612353565b8015610ad15780601f10610aa657610100808354040283529160200191610ad1565b820191906000526020600020905b815481529060010190602001808311610ab457829003601f168201915b505050505090506000610ae26119df565b9050600081511415610af8578192505050610b3b565b600082511115610b2d578082604051602001610b15929190612a81565b60405160208183030381529060405292505050610b3b565b610b36846119f6565b925050505b919050565b60088181548110610b5057600080fd5b906000526020600020016000915090505481565b6000600560008473ffffffffffffffffffffffffffffffffffffffff1673ffffffffffffffffffffffffffffffffffffffff16815260200190815260200160002060008373ffffffffffffffffffffffffffffffffffffffff1673ffffffffffffffffffffffffffffffffffffffff16815260200190815260200160002060009054906101000a900460ff16905092915050565b610c8e81604051602401610c0c9190611e95565b6040516020818303038152906040527f41304fac000000000000000000000000000000000000000000000000000000007bffffffffffffffffffffffffffffffffffffffffffffffffffffffff19166020820180517bffffffffffffffffffffffffffffffffffffffffffffffffffffffff8381831617835250505050611a9d565b50565b60007f01ffc9a7000000000000000000000000000000000000000000000000000000007bffffffffffffffffffffffffffffffffffffffffffffffffffffffff1916827bffffffffffffffffffffffffffffffffffffffffffffffffffffffff1916149050919050565b60008073ffffffffffffffffffffffffffffffffffffffff166002600084815260200190815260200160002060009054906101000a900473ffffffffffffffffffffffffffffffffffffffff1673ffffffffffffffffffffffffffffffffffffffff1614159050919050565b600033905090565b816004600083815260200190815260200160002060006101000a81548173ffffffffffffffffffffffffffffffffffffffff021916908373ffffffffffffffffffffffffffffffffffffffff160217905550808273ffffffffffffffffffffffffffffffffffffffff16610de28361077a565b73ffffffffffffffffffffffffffffffffffffffff167f8c5be1e5ebec7d5bd14f71427d1e84f3dd0314c0f7b2291e5b200ac8c7c3b92560405160405180910390a45050565b6000610e3382610cfb565b610e72576040517f08c379a0000000000000000000000000000000000000000000000000000000008152600401610e6990612b17565b60405180910390fd5b6000610e7d8361077a565b90508073ffffffffffffffffffffffffffffffffffffffff168473ffffffffffffffffffffffffffffffffffffffff161480610eec57508373ffffffffffffffffffffffffffffffffffffffff16610ed4846104b6565b73ffffffffffffffffffffffffffffffffffffffff16145b80610efd5750610efc8185610b64565b5b91505092915050565b8273ffffffffffffffffffffffffffffffffffffffff16610f268261077a565b73ffffffffffffffffffffffffffffffffffffffff1614610f7c576040517f08c379a0000000000000000000000000000000000000000000000000000000008152600401610f7390612ba9565b60405180910390fd5b600073ffffffffffffffffffffffffffffffffffffffff168273ffffffffffffffffffffffffffffffffffffffff161415610fec576040517f08c379a0000000000000000000000000000000000000000000000000000000008152600401610fe390612c3b565b60405180910390fd5b610ff7838383611ac6565b611002600082610d6f565b6001600360008573ffffffffffffffffffffffffffffffffffffffff1673ffffffffffffffffffffffffffffffffffffffff16815260200190815260200160002060008282546110529190612c8a565b925050819055506001600360008473ffffffffffffffffffffffffffffffffffffffff1673ffffffffffffffffffffffffffffffffffffffff16815260200190815260200160002060008282546110a99190612cbe565b92505081905550816002600083815260200190815260200160002060006101000a81548173ffffffffffffffffffffffffffffffffffffffff021916908373ffffffffffffffffffffffffffffffffffffffff160217905550808273ffffffffffffffffffffffffffffffffffffffff168473ffffffffffffffffffffffffffffffffffffffff167fddf252ad1be2c89b69c2b068fc378daa952ba7f163c4a11628f55a4df523b3ef60405160405180910390a4611168838383611acb565b505050565b6001816000016000828254019250508190555050565b600081600001549050919050565b606060008214156111d9576040518060400160405280600181526020017f300000000000000000000000000000000000000000000000000000000000000081525090506112ed565b600082905060005b6000821461120b5780806111f490612d14565b915050600a826112049190612d8c565b91506111e1565b60008167ffffffffffffffff81111561122757611226612102565b5b6040519080825280601f01601f1916602001820160405280156112595781602001600182028036833780820191505090505b5090505b600085146112e6576001826112729190612c8a565b9150600a856112819190612dbd565b603061128d9190612cbe565b60f81b8183815181106112a3576112a2612dee565b5b60200101907effffffffffffffffffffffffffffffffffffffffffffffffffffffffffffff1916908160001a905350600a856112df9190612d8c565b945061125d565b8093505050505b919050565b600073ffffffffffffffffffffffffffffffffffffffff168273ffffffffffffffffffffffffffffffffffffffff161415611362576040517f08c379a000000000000000000000000000000000000000000000000000000000815260040161135990612e69565b60405180910390fd5b61136b81610cfb565b156113ab576040517f08c379a00000000000000000000000000000000000000000000000000000000081526004016113a290612ed5565b60405180910390fd5b6113b760008383611ac6565b6001600360008473ffffffffffffffffffffffffffffffffffffffff1673ffffffffffffffffffffffffffffffffffffffff16815260200190815260200160002060008282546114079190612cbe565b92505081905550816002600083815260200190815260200160002060006101000a81548173ffffffffffffffffffffffffffffffffffffffff021916908373ffffffffffffffffffffffffffffffffffffffff160217905550808273ffffffffffffffffffffffffffffffffffffffff16600073ffffffffffffffffffffffffffffffffffffffff167fddf252ad1be2c89b69c2b068fc378daa952ba7f163c4a11628f55a4df523b3ef60405160405180910390a46114c860008383611acb565b5050565b60606000825114156114ef5760405180602001604052806000815250905061162b565b6000604051806060016040528060408152602001613355604091399050600060036002855161151e9190612cbe565b6115289190612d8c565b60046115349190612ef5565b67ffffffffffffffff81111561154d5761154c612102565b5b6040519080825280601f01601f19166020018201604052801561157f5781602001600182028036833780820191505090505b509050600182016020820185865187015b808210156115eb576003820191508151603f8160121c168501518453600184019350603f81600c1c168501518453600184019350603f8160061c168501518453600184019350603f8116850151845360018401935050611590565b5050600386510660018114611607576002811461161a57611622565b603d6001830353603d6002830353611622565b603d60018303535b50505080925050505b919050565b61163982610cfb565b611678576040517f08c379a000000000000000000000000000000000000000000000000000000000815260040161166f90612fc1565b60405180910390fd5b8060066000848152602001908152602001600020908051906020019061169f929190611c8a565b505050565b6000600880549050141561170c576008848484846040516020016116cb949392919061304a565b604051602081830303815290604052805190602001209080600181540180825580915050600190039060005260206000200160009091909190915055611810565b600884848484604051602001611725949392919061304a565b60405160208183030381529060405280519060200120908060018154018082558091505060019003906000526020600020016000909190919091505560088060016008805490506117769190612c8a565b8154811061178757611786612dee565b5b9060005260206000200154600860026008805490506117a69190612c8a565b815481106117b7576117b6612dee565b5b90600052602060002001546040516020016117d39291906130b5565b6040516020818303038152906040528051906020012090806001815401808255809150506001900390600052602060002001600090919091909150555b50505050565b8173ffffffffffffffffffffffffffffffffffffffff168373ffffffffffffffffffffffffffffffffffffffff161415611885576040517f08c379a000000000000000000000000000000000000000000000000000000000815260040161187c9061312d565b60405180910390fd5b80600560008573ffffffffffffffffffffffffffffffffffffffff1673ffffffffffffffffffffffffffffffffffffffff16815260200190815260200160002060008473ffffffffffffffffffffffffffffffffffffffff1673ffffffffffffffffffffffffffffffffffffffff16815260200190815260200160002060006101000a81548160ff0219169083151502179055508173ffffffffffffffffffffffffffffffffffffffff168373ffffffffffffffffffffffffffffffffffffffff167f17307eab39ab6107e8899845ad3d59bd9653f200f220920489ca2b5937696c31836040516119769190611de1565b60405180910390a3505050565b61198e848484610f06565b61199a84848484611ad0565b6119d9576040517f08c379a00000000000000000000000000000000000000000000000000000000081526004016119d0906131bf565b60405180910390fd5b50505050565b606060405180602001604052806000815250905090565b6060611a0182610cfb565b611a40576040517f08c379a0000000000000000000000000000000000000000000000000000000008152600401611a3790613251565b60405180910390fd5b6000611a4a6119df565b90506000815111611a6a5760405180602001604052806000815250611a95565b80611a7484611191565b604051602001611a85929190612a81565b6040516020818303038152906040525b915050919050565b60008151905060006a636f6e736f6c652e6c6f679050602083016000808483855afa5050505050565b505050565b505050565b6000611af18473ffffffffffffffffffffffffffffffffffffffff16611c67565b15611c5a578373ffffffffffffffffffffffffffffffffffffffff1663150b7a02611b1a610d67565b8786866040518563ffffffff1660e01b8152600401611b3c94939291906132c6565b602060405180830381600087803b158015611b5657600080fd5b505af1925050508015611b8757506040513d601f19601f82011682018060405250810190611b849190613327565b60015b611c0a573d8060008114611bb7576040519150601f19603f3d011682016040523d82523d6000602084013e611bbc565b606091505b50600081511415611c02576040517f08c379a0000000000000000000000000000000000000000000000000000000008152600401611bf9906131bf565b60405180910390fd5b805181602001fd5b63150b7a0260e01b7bffffffffffffffffffffffffffffffffffffffffffffffffffffffff1916817bffffffffffffffffffffffffffffffffffffffffffffffffffffffff191614915050611c5f565b600190505b949350505050565b6000808273ffffffffffffffffffffffffffffffffffffffff163b119050919050565b828054611c9690612353565b90600052602060002090601f016020900481019282611cb85760008555611cff565b82601f10611cd157805160ff1916838001178555611cff565b82800160010185558215611cff579182015b82811115611cfe578251825591602001919060010190611ce3565b5b509050611d0c9190611d10565b5090565b5b80821115611d29576000816000905550600101611d11565b5090565b6000604051905090565b600080fd5b600080fd5b60007fffffffff0000000000000000000000000000000000000000000000000000000082169050919050565b611d7681611d41565b8114611d8157600080fd5b50565b600081359050611d9381611d6d565b92915050565b600060208284031215611daf57611dae611d37565b5b6000611dbd84828501611d84565b91505092915050565b60008115159050919050565b611ddb81611dc6565b82525050565b6000602082019050611df66000830184611dd2565b92915050565b600081519050919050565b600082825260208201905092915050565b60005b83811015611e36578082015181840152602081019050611e1b565b83811115611e45576000848401525b50505050565b6000601f19601f8301169050919050565b6000611e6782611dfc565b611e718185611e07565b9350611e81818560208601611e18565b611e8a81611e4b565b840191505092915050565b60006020820190508181036000830152611eaf8184611e5c565b905092915050565b6000819050919050565b611eca81611eb7565b8114611ed557600080fd5b50565b600081359050611ee781611ec1565b92915050565b600060208284031215611f0357611f02611d37565b5b6000611f1184828501611ed8565b91505092915050565b600073ffffffffffffffffffffffffffffffffffffffff82169050919050565b6000611f4582611f1a565b9050919050565b611f5581611f3a565b82525050565b6000602082019050611f706000830184611f4c565b92915050565b611f7f81611f3a565b8114611f8a57600080fd5b50565b600081359050611f9c81611f76565b92915050565b60008060408385031215611fb957611fb8611d37565b5b6000611fc785828601611f8d565b9250506020611fd885828601611ed8565b9150509250929050565b600080600060608486031215611ffb57611ffa611d37565b5b600061200986828701611f8d565b935050602061201a86828701611f8d565b925050604061202b86828701611ed8565b9150509250925092565b60006020828403121561204b5761204a611d37565b5b600061205984828501611f8d565b91505092915050565b61206b81611eb7565b82525050565b60006020820190506120866000830184612062565b92915050565b61209581611dc6565b81146120a057600080fd5b50565b6000813590506120b28161208c565b92915050565b600080604083850312156120cf576120ce611d37565b5b60006120dd85828601611f8d565b92505060206120ee858286016120a3565b9150509250929050565b600080fd5b600080fd5b7f4e487b7100000000000000000000000000000000000000000000000000000000600052604160045260246000fd5b61213a82611e4b565b810181811067ffffffffffffffff8211171561215957612158612102565b5b80604052505050565b600061216c611d2d565b90506121788282612131565b919050565b600067ffffffffffffffff82111561219857612197612102565b5b6121a182611e4b565b9050602081019050919050565b82818337600083830152505050565b60006121d06121cb8461217d565b612162565b9050828152602081018484840111156121ec576121eb6120fd565b5b6121f78482856121ae565b509392505050565b600082601f830112612214576122136120f8565b5b81356122248482602086016121bd565b91505092915050565b6000806000806080858703121561224757612246611d37565b5b600061225587828801611f8d565b945050602061226687828801611f8d565b935050604061227787828801611ed8565b925050606085013567ffffffffffffffff81111561229857612297611d3c565b5b6122a4878288016121ff565b91505092959194509250565b6000819050919050565b6122c3816122b0565b82525050565b60006020820190506122de60008301846122ba565b92915050565b600080604083850312156122fb576122fa611d37565b5b600061230985828601611f8d565b925050602061231a85828601611f8d565b9150509250929050565b7f4e487b7100000000000000000000000000000000000000000000000000000000600052602260045260246000fd5b6000600282049050600182168061236b57607f821691505b6020821081141561237f5761237e612324565b5b50919050565b7f4552433732313a20617070726f76656420717565727920666f72206e6f6e657860008201527f697374656e7420746f6b656e0000000000000000000000000000000000000000602082015250565b60006123e1602c83611e07565b91506123ec82612385565b604082019050919050565b60006020820190508181036000830152612410816123d4565b9050919050565b7f4552433732313a20617070726f76616c20746f2063757272656e74206f776e6560008201527f7200000000000000000000000000000000000000000000000000000000000000602082015250565b6000612473602183611e07565b915061247e82612417565b604082019050919050565b600060208201905081810360008301526124a281612466565b9050919050565b7f4552433732313a20617070726f76652063616c6c6572206973206e6f74206f7760008201527f6e6572206e6f7220617070726f76656420666f7220616c6c0000000000000000602082015250565b6000612505603883611e07565b9150612510826124a9565b604082019050919050565b60006020820190508181036000830152612534816124f8565b9050919050565b7f4552433732313a207472616e736665722063616c6c6572206973206e6f74206f60008201527f776e6572206e6f7220617070726f766564000000000000000000000000000000602082015250565b6000612597603183611e07565b91506125a28261253b565b604082019050919050565b600060208201905081810360008301526125c68161258a565b9050919050565b600081905092915050565b7f7b00000000000000000000000000000000000000000000000000000000000000600082015250565b600061260e6001836125cd565b9150612619826125d8565b600182019050919050565b7f226e616d65223a20224d65726b6c654e66742023000000000000000000000000600082015250565b600061265a6014836125cd565b915061266582612624565b601482019050919050565b600061267b82611dfc565b61268581856125cd565b9350612695818560208601611e18565b80840191505092915050565b7f222c000000000000000000000000000000000000000000000000000000000000600082015250565b60006126d76002836125cd565b91506126e2826126a1565b600282019050919050565b7f226465736372697074696f6e223a20224d65726b6c6520726f6f7420696d706c60008201527f656d656e746174696f6e204e465420436f6c6c656374696f6e20230000000000602082015250565b6000612749603b836125cd565b9150612754826126ed565b603b82019050919050565b7f2e22000000000000000000000000000000000000000000000000000000000000600082015250565b60006127956002836125cd565b91506127a08261275f565b600282019050919050565b7f7d00000000000000000000000000000000000000000000000000000000000000600082015250565b60006127e16001836125cd565b91506127ec826127ab565b600182019050919050565b600061280282612601565b915061280d8261264d565b91506128198285612670565b9150612824826126ca565b915061282f8261273c565b915061283b8284612670565b915061284682612788565b9150612851826127d4565b91508190509392505050565b7f646174613a6170706c69636174696f6e2f6a736f6e3b6261736536342c000000600082015250565b6000612893601d836125cd565b915061289e8261285d565b601d82019050919050565b60006128b482612886565b91506128c08284612670565b915081905092915050565b7f4552433732313a206f776e657220717565727920666f72206e6f6e657869737460008201527f656e7420746f6b656e0000000000000000000000000000000000000000000000602082015250565b6000612927602983611e07565b9150612932826128cb565b604082019050919050565b600060208201905081810360008301526129568161291a565b9050919050565b7f4552433732313a2062616c616e636520717565727920666f7220746865207a6560008201527f726f206164647265737300000000000000000000000000000000000000000000602082015250565b60006129b9602a83611e07565b91506129c48261295d565b604082019050919050565b600060208201905081810360008301526129e8816129ac565b9050919050565b7f45524337323155524953746f726167653a2055524920717565727920666f722060008201527f6e6f6e6578697374656e7420746f6b656e000000000000000000000000000000602082015250565b6000612a4b603183611e07565b9150612a56826129ef565b604082019050919050565b60006020820190508181036000830152612a7a81612a3e565b9050919050565b6000612a8d8285612670565b9150612a998284612670565b91508190509392505050565b7f4552433732313a206f70657261746f7220717565727920666f72206e6f6e657860008201527f697374656e7420746f6b656e0000000000000000000000000000000000000000602082015250565b6000612b01602c83611e07565b9150612b0c82612aa5565b604082019050919050565b60006020820190508181036000830152612b3081612af4565b9050919050565b7f4552433732313a207472616e736665722066726f6d20696e636f72726563742060008201527f6f776e6572000000000000000000000000000000000000000000000000000000602082015250565b6000612b93602583611e07565b9150612b9e82612b37565b604082019050919050565b60006020820190508181036000830152612bc281612b86565b9050919050565b7f4552433732313a207472616e7366657220746f20746865207a65726f2061646460008201527f7265737300000000000000000000000000000000000000000000000000000000602082015250565b6000612c25602483611e07565b9150612c3082612bc9565b604082019050919050565b60006020820190508181036000830152612c5481612c18565b9050919050565b7f4e487b7100000000000000000000000000000000000000000000000000000000600052601160045260246000fd5b6000612c9582611eb7565b9150612ca083611eb7565b925082821015612cb357612cb2612c5b565b5b828203905092915050565b6000612cc982611eb7565b9150612cd483611eb7565b9250827fffffffffffffffffffffffffffffffffffffffffffffffffffffffffffffffff03821115612d0957612d08612c5b565b5b828201905092915050565b6000612d1f82611eb7565b91507fffffffffffffffffffffffffffffffffffffffffffffffffffffffffffffffff821415612d5257612d51612c5b565b5b600182019050919050565b7f4e487b7100000000000000000000000000000000000000000000000000000000600052601260045260246000fd5b6000612d9782611eb7565b9150612da283611eb7565b925082612db257612db1612d5d565b5b828204905092915050565b6000612dc882611eb7565b9150612dd383611eb7565b925082612de357612de2612d5d565b5b828206905092915050565b7f4e487b7100000000000000000000000000000000000000000000000000000000600052603260045260246000fd5b7f4552433732313a206d696e7420746f20746865207a65726f2061646472657373600082015250565b6000612e53602083611e07565b9150612e5e82612e1d565b602082019050919050565b60006020820190508181036000830152612e8281612e46565b9050919050565b7f4552433732313a20746f6b656e20616c7265616479206d696e74656400000000600082015250565b6000612ebf601c83611e07565b9150612eca82612e89565b602082019050919050565b60006020820190508181036000830152612eee81612eb2565b9050919050565b6000612f0082611eb7565b9150612f0b83611eb7565b9250817fffffffffffffffffffffffffffffffffffffffffffffffffffffffffffffffff0483118215151615612f4457612f43612c5b565b5b828202905092915050565b7f45524337323155524953746f726167653a2055524920736574206f66206e6f6e60008201527f6578697374656e7420746f6b656e000000000000000000000000000000000000602082015250565b6000612fab602e83611e07565b9150612fb682612f4f565b604082019050919050565b60006020820190508181036000830152612fda81612f9e565b9050919050565b60008160601b9050919050565b6000612ff982612fe1565b9050919050565b600061300b82612fee565b9050919050565b61302361301e82611f3a565b613000565b82525050565b6000819050919050565b61304461303f82611eb7565b613029565b82525050565b60006130568287613012565b6014820191506130668286613012565b6014820191506130768285613033565b6020820191506130868284612670565b915081905095945050505050565b6000819050919050565b6130af6130aa826122b0565b613094565b82525050565b60006130c1828561309e565b6020820191506130d1828461309e565b6020820191508190509392505050565b7f4552433732313a20617070726f766520746f2063616c6c657200000000000000600082015250565b6000613117601983611e07565b9150613122826130e1565b602082019050919050565b600060208201905081810360008301526131468161310a565b9050919050565b7f4552433732313a207472616e7366657220746f206e6f6e20455243373231526560008201527f63656976657220696d706c656d656e7465720000000000000000000000000000602082015250565b60006131a9603283611e07565b91506131b48261314d565b604082019050919050565b600060208201905081810360008301526131d88161319c565b9050919050565b7f4552433732314d657461646174613a2055524920717565727920666f72206e6f60008201527f6e6578697374656e7420746f6b656e0000000000000000000000000000000000602082015250565b600061323b602f83611e07565b9150613246826131df565b604082019050919050565b6000602082019050818103600083015261326a8161322e565b9050919050565b600081519050919050565b600082825260208201905092915050565b600061329882613271565b6132a2818561327c565b93506132b2818560208601611e18565b6132bb81611e4b565b840191505092915050565b60006080820190506132db6000830187611f4c565b6132e86020830186611f4c565b6132f56040830185612062565b8181036060830152613307818461328d565b905095945050505050565b60008151905061332181611d6d565b92915050565b60006020828403121561333d5761333c611d37565b5b600061334b84828501613312565b9150509291505056fe4142434445464748494a4b4c4d4e4f505152535455565758595a6162636465666768696a6b6c6d6e6f707172737475767778797a303132333435363738392b2fa2646970667358221220708f4638d792fa8b860eafbecd1df64739bedd1ba55166c689a5c7ec67eda62164736f6c634300080900334865792c204920616d206120636f6e747261637420666f72204d696e74696e6720616e204e465420616e6420636f6d6d697474696e6720746865206d696e74206461746120746f2061204d65726b6c652054726565",
    "linkReferences": {},
    "deployedLinkReferences": {}
}